:100000000C9462000C948A000C948A000C948A0070
:100010000C948A000C948A000C948A000C948A0038
:100020000C948A000C948A000C948A000C948A0028
:100030000C948A000C948A000C948A000C948A0018
:100040000C9421050C948A000C9447060C9421060C
:100050000C948A000C948A000C948A000C948A00F8
:100060000C948A000C948A000000000025002800EF
:100070002B0000000000240027002A0000000000E0
:1000800023002600290004040404040404040202DA
:100090000202020203030303030301020408102007
:1000A0004080010204081020010204081020000012
:1000B0000008000201000003040700000000000027
:1000C00000002D0E11241FBECFEFD8E0DEBFCDBF44
:1000D00023E0ACE8B1E001C01D92A930B207E1F71E
:1000E00011E0A0E0B1E0E0E7FEE102C005900D9272
:1000F000AC38B107D9F710E0C2E6D0E004C02197D0
:10010000FE010E942B0FC136D107C9F70E94460895
:100110000C94360F0C940000FC01538D448D252F58
:1001200030E0842F90E0821B930B541710F0CF9691
:10013000089501970895FC01918D828D981761F0C3
:10014000828DDF01A80FB11D5D968C91928D9F5F0E
:100150009F73928F90E008958FEF9FEF0895FC01B9
:10016000918D828D981731F0828DE80FF11D858D6C
:1001700090E008958FEF9FEF0895FC01918D228DFF
:10018000892F90E0805C9F4F821B91098F73992784
:10019000089580E090E0892B29F00E9417068111D4
:1001A0000C9400000895EF92FF920F931F93CF934A
:1001B000DF93EC0190918D019F5F292F2770209391
:1001C0008D0190FF02C090E801C090E021FD906495
:1001D000247009F0906220E1290FFE013C967E0117
:1001E0008FE0E80EF11C00E011E06191662331F030
:1001F00070E0C8010E94DD0E6F5F01C060E0DF01AA
:1002000014976C93322F369F030E30E0311D11246A
:10021000CF010797311103C0EC01188203C03150A0
:10022000EC013883662311F061506C93EE15FF05E5
:10023000E1F6DF91CF911F910F91FF90EF9008951C
:1002400080E991E00895509A08950F931F93CF93FA
:10025000DF93CDB7DEB762970FB6F894DEBF0FBE5F
:10026000CDBF8C01F901DC011C968C917A836983E6
:100270005C834B835E834D8390819D8791819E87B4
:1002800092819F87813029F4CE0101960E94D3008C
:1002900006C01C861B861A86198618861F8283E074
:1002A000888B1A8A198AD801ED91FC910484F5850E
:1002B000E02DBE016F5F7F4FC801099562960FB6B2
:1002C000F894DEBF0FBECDBFDF91CF911F910F918C
:1002D00008950F931F93CF93DF93CDB7DEB7629747
:1002E0000FB6F894DEBF0FBECDBF8C01F901DC0163
:1002F0001C968C917A8369835C834B835E834D83E8
:1003000090819D8791819E8792819F87813029F47A
:10031000CE0101960E94D30006C01C861B861A8659
:10032000198618861F82188A1A8A198AD801ED91AF
:10033000FC910484F585E02DBE016F5F7F4FC801FD
:10034000099562960FB6F894DEBF0FBECDBFDF9160
:10035000CF911F910F91089580E090E00895FC01E6
:10036000858596850895CF93DF9300D000D000D087
:10037000CDB7DEB7AB011C821D821E82DC01ED9180
:10038000FC910190F081E02D19821A821B829E015E
:100390002F5F3F4FBE016C5F7F4F099526960FB6CA
:1003A000F894DEBF0FBECDBFDF91CF9108950E94BC
:1003B000310FFC01848DDF01A80FB11DA35ABF4F7F
:1003C0002C91848D90E001968F739927848FA68954
:1003D000B7892C93A089B1898C9180648C93938D7B
:1003E000848D981306C00288F389E02D80818F7D6B
:1003F00080830895EF92FF920F931F93CF93DF9323
:10040000EC0181E0888F9B8D8C8D981305C0E88965
:10041000F989808185FD24C0F62E0B8D10E00F5FD9
:100420001F4F0F731127E02E8C8DE8120CC00FB6F2
:1004300007FCFACFE889F989808185FFF5CFCE01E5
:100440000E94D901F1CF8B8DFE01E80FF11DE35A17
:10045000FF4FF0820B8FEA89FB898081806207C0A1
:10046000EE89FF896083E889F989808180648083CF
:1004700081E090E0DF91CF911F910F91FF90EF907D
:100480000895CF93DF93EC01888D8823C9F0EA8922
:10049000FB89808185FD05C0A889B9898C9186FD7D
:1004A0000FC00FB607FCF5CF808185FFF2CFA8897A
:1004B000B9898C9185FFEDCFCE010E94D901E7CF9C
:1004C000DF91CF9108953FB7F89480919301909177
:1004D0009401A0919501B091960126B5A89B05C005
:1004E0002F3F19F00196A11DB11D3FBFBA2FA92FB3
:1004F000982F8827820F911DA11DB11DBC01CD0130
:1005000042E0660F771F881F991F4A95D1F708951B
:100510008F929F92AF92BF92CF92DF92EF92FF9213
:100520006B017C010E9463024B015C01C114D10488
:10053000E104F104F1F00E946302DC01CB018819AF
:100540009909AA09BB09883E9340A105B10570F33A
:1005500021E0C21AD108E108F10888EE880E83E094
:10056000981EA11CB11CC114D104E104F10419F7B7
:10057000DDCFFF90EF90DF90CF90BF90AF909F9036
:100580008F9008954F925F926F927F928F92AF9269
:10059000BF92CF92EF92FF920F931F93CF93DF936F
:1005A0003C01EB010E946302F30127853089621B45
:1005B000730B6A307105B0F3F894E881F9815BB18F
:1005C00051608BB18E7F8BB96A859F81262F291B45
:1005D000922F2F83BF844A805B807D85FC84EE84CC
:1005E0007F5FF394E3943E814885A984CB84118195
:1005F000D20120E0C32F022F322F3181112788949E
:100600003111390F08F43FEF9195889470FD130F65
:100610001795889471FD130F1795889472FD130F29
:100620001795889473FD130F1795889474FD130F15
:100630001795889475FD130F1795889476FD130F01
:100640001795889477FD130F17958894232F7111B0
:10065000212F960F122F002C5BB900C017FF8BB90A
:1006600030812227889400C000C0002C8BB9311142
:100670003C0F00C0002C5BB900C016FF8BB908F41A
:100680003FEFC195889400C000C0002C8BB9F0FCEE
:10069000230F00C0002C5BB900C015FF8BB9279554
:1006A0008894F1FC230F00C000C0002C8BB9279563
:1006B000889400C0002C5BB900C014FF8BB9F2FC19
:1006C000230F2795889400C000C0002C8BB9F3FC41
:1006D000230F00C0002C5BB900C013FF8BB9279516
:1006E0008894F4FC230F00C000C0002C8BB9279520
:1006F000889400C0002C5BB900C012FF8BB9F5FCD8
:10070000230F2795889400C000C0002C8BB9F6FCFD
:10071000230F00C0002C5BB900C011FF8BB92795D7
:100720008894F7FC230F00C000C0002C8BB92795DC
:10073000889400C0002C5BB900C010FF8BB9132F48
:10074000F110122FCA0D00C000C0002C8BB900C0E0
:1007500000C0002C5BB900C017FF8BB93281222783
:10076000889400C000C0002C8BB93111340F00C038
:10077000002C5BB900C016FF8BB908F43FEFEB0DFE
:10078000F11D00C000C0002C8BB9E0FC230F00C09D
:10079000002C5BB900C015FF8BB927958894E1FC4C
:1007A000230F00C000C0002C8BB92795889400C08F
:1007B000002C5BB900C014FF8BB9E2FC230F279516
:1007C000889400C000C0002C8BB9E3FC230F00C04C
:1007D000002C5BB900C013FF8BB927958894E4FC0B
:1007E000230F00C000C0002C8BB92795889400C04F
:1007F000002C5BB900C012FF8BB9E5FC230F2795D5
:10080000889400C000C0002C8BB9E6FC230F00C008
:10081000002C5BB900C011FF8BB927958894E7FCC9
:10082000230F00C000C0002C8BB92795889400C00E
:10083000002C5BB900C010FF8BB9132FE110122FF1
:10084000419500C000C0002C8BB94C0D00C000C009
:100850005BB900C017FF8BB931812227889400C093
:1008600000C0002C8BB93111390F00C0002C5BB9CE
:1008700000C016FF8BB908F43FEF9195889400C033
:1008800000C0002C8BB970FD230F00C0002C5BB999
:1008900000C015FF8BB92795889471FD230F00C008
:1008A00000C0002C8BB92795889400C0002C5BB940
:1008B00000C014FF8BB972FD230F2795889400C0E8
:1008C00000C0002C8BB973FD230F00C0002C5BB956
:1008D00000C013FF8BB92795889474FD230F00C0C7
:1008E00000C0002C8BB92795889400C0002C5BB900
:1008F00000C012FF8BB975FD230F2795889400C0A7
:1009000000C0002C8BB976FD230F00C0002C5BB912
:1009100000C011FF8BB92795889477FD230F00C085
:1009200000C0002C8BB92795889400C0002C5BB9BF
:1009300000C010FF8BB9132F7111122F960F00C03A
:1009400000C0002C8BB9119709F086CE20EE31E063
:10095000D2010E94100FDC01CB01F4E0B695A795FF
:1009600097958795FA95D1F720E030E0A9016AE9DB
:10097000469E040C411D569E400D511D1124450DEF
:10098000511D840F951FA11DB11D893E43E09407A1
:10099000A105B10508F434C0885E9340A109B109EE
:1009A00042E0B695A795979587954A95D1F747E088
:1009B000849F080E211D949F200D311D1124290FA5
:1009C000311D60918C0170E0860F971F820F931F7D
:1009D00040918F015091900160919101709192012D
:1009E000292F3327420F531F611D711D40938F0123
:1009F00050939001609391017093920180938C01C8
:100A000078940E946302F301708B6787DF91CF9126
:100A10001F910F91FF90EF90CF90BF90AF908F906C
:100A20007F906F905F904F9008952FB7F8946091EA
:100A30008F017091900180919101909192012FBF4F
:100A400008951F920F920FB60F9211242F933F9388
:100A50008F939F93AF93BF9380918F01909190015B
:100A6000A0919101B091920130918E0123E0230F6A
:100A70002D3720F40196A11DB11D05C026E8230FD6
:100A80000296A11DB11D20938E0180938F0190933A
:100A90009001A0939101B093920180919301909164
:100AA0009401A0919501B09196010196A11DB11DEF
:100AB0008093930190939401A0939501B093960134
:100AC000BF91AF919F918F913F912F910F900FBE4A
:100AD0000F901F901895DC01FB014C9111965C91D1
:100AE000119712967C91342F3F71330F330F832F60
:100AF000880F35E5282F239F020E20E0211D1124A9
:100B0000642F6074942F907247FD21C061110BC057
:100B1000911104C0822F8095422F11C045E5420FEC
:100B200030E02BEA33C091110DC0382F4AEA349FD0
:100B3000030E30E0311D11248BEA831B420F282F56
:100B400030E024C080E0422F4095322F0EC061116A
:100B500011C091110CC0382F2AEA329F030E30E0E9
:100B6000311D11244BEA431B3B5A20E00FC0322FAA
:100B700030950BC0911104C085E5820F3BEA03C09C
:100B80008AEA820F90E0321B282F40E05F3F11F18C
:100B90005523E9F0222321F0259F020E20E0211D9C
:100BA000442321F0459F040E40E0411D332321F0F2
:100BB000359F030E30E0311D11245095559F050ED1
:100BC00050E0511D1124250F450F350F03C03FEF95
:100BD0004FEF2FEF7F3F09F420C050E0772321F043
:100BE000779F512D09F05F5F5523A1F0222321F05B
:100BF000259F020E20E0211D442321F0459F040E75
:100C000040E0411D332321F0359F030E30E0311DBC
:100C1000112403C030E040E020E020834183328390
:100C200008950C947B0E089580E090E008958DE087
:100C300092E00E94BD0021E0892B09F420E0822F80
:100C400008951F920F920FB60F9211242F933F9386
:100C50004F935F936F937F938F939F93AF93BF93C4
:100C6000EF93FF938DE092E00E94D901FF91EF9105
:100C7000BF91AF919F918F917F916F915F914F91B4
:100C80003F912F910F900FBE0F901F9018951F92BC
:100C90000F920FB60F9211242F938F939F93EF9380
:100CA000FF93E0911D02F0911E028081E0912302EA
:100CB000F091240282FD12C09081809126028F5F04
:100CC0008F7320912702821751F0E0912602F0E005
:100CD000E35FFD4F958F8093260201C08081FF91D5
:100CE000EF919F918F912F910F900FBE0F901F90BA
:100CF0001895CF92DF92EF92FF920F931F93CF93AD
:100D0000DF936C017A018B01C0E0D0E0CE15DF05E6
:100D100089F0D8016D918D01D601ED91FC91019082
:100D2000F081E02DC6010995892B11F47E0102C0E6
:100D30002196ECCFC701DF91CF911F910F91FF90CA
:100D4000EF90DF90CF9008953F924F925F926F9215
:100D50007F928F929F92AF92BF92CF92DF92EF924B
:100D6000FF920F931F93CF93DF9300D01F92CDB7C5
:100D7000DEB7F090F2028091F5029091F602A09118
:100D8000F702B091F802892B8A2B8B2BE9F00E9495
:100D9000630200910503109106032091070330912F
:100DA0000803DC01CB01801B910BA20BB30B00915C
:100DB000F5021091F6022091F7023091F8028017A7
:100DC0009107A207B307B8F20E946302609305037C
:100DD000709306038093070390930803E091FD024C
:100DE000F091FE02309759F04091F9025091FA02C9
:100DF0006091FB027091FC028F2D0995F82E0091F5
:100E00000B0210910C024F2C512C612C712C0115EE
:100E1000110509F461C0D8011C96EC901C978091D3
:100E2000F3029091F4028436910510F41C961C9202
:100E3000D801ED91FC91A280B38019821A821B82A5
:100E4000F11014C0F80145855685628173819E01B9
:100E50002F5F3F4FC801F5010995D8011C96EC9210
:100E60001C9714960D911C911597D1CFF8013996C6
:100E7000CE0101966C0148019CE0890E911CDF01B6
:100E800013973C902191332001F12223F1F0822F1E
:100E900090E0A0E0B0E09C01AD012F5F3F4F4F4FCD
:100EA0005F4FC301B2010E94910E9B01AC01832DE3
:100EB00090E0A0E0B0E0BC01CD016F5F7F4F8F4FAD
:100EC0009F4F0E94910ED6018C93BFEFCB1ADB0A85
:100ED000E815F905A1F6B6CF8091030390910403BC
:100EE0008C010F5F1F4F1093040300930303499776
:100EF0009CF10E9415054B015C0188EE93E0089F70
:100F0000B001099F700D189F700D1124072E000C61
:100F1000880B990BC090FF02D0900003E090010372
:100F2000F0900203A50194012C193D094E095F09B7
:100F30000E94A10E3093F4022093F3021092040356
:100F4000109203030E9415056093FF027093000343
:100F500080930103909302030F900F900F90DF9105
:100F6000CF911F910F91FF90EF90DF90CF90BF90A6
:100F7000AF909F908F907F906F905F904F903F9039
:100F800008958F929F92AF92BF92CF92DF92EF928D
:100F9000FF926B017C010E9415054B015C01C60E9E
:100FA000D71EE81EF91E0E941505681579058A05E9
:100FB0009B0528F0C616D706E806F906A0F7FF90AD
:100FC000EF90DF90CF90BF90AF909F908F9008955B
:100FD0006115710579F0FB0101900020E9F7319767
:100FE000AF01461B570BDC01ED91FC910280F381B0
:100FF000E02D099480E090E008954F925F926F9207
:101000007F92EF92FF920F931F93CF93DF93CDB711
:10101000DEB7A1970FB6F894DEBF0FBECDBF7C013F
:10102000FA01CB0119A2223008F42AE08E010F5DEB
:101030001F4F422E512C612C712CBF01A301920134
:101040000E94A10EF901CA01015011096A3014F47D
:10105000605D01C0695CD8016C93232B242B252B88
:1010600061F7B801C7010E94E807A1960FB6F8948E
:10107000DEBF0FBECDBFDF91CF911F910F91FF90CB
:10108000EF907F906F905F904F900895CF93DF9394
:1010900000D000D0CDB7DEB7789484B5826084BD2F
:1010A00084B5816084BD85B5826085BD85B581606C
:1010B00085BD80916E00816080936E0010928100EA
:1010C00080918100826080938100809181008160A5
:1010D0008093810080918000816080938000809166
:1010E000B10084608093B1008091B00081608093F2
:1010F000B00080917A00846080937A0080917A00B9
:10110000826080937A0080917A00816080937A0077
:1011100080917A00806880937A001092C1001092CA
:10112000EE021092EF021092F0021092F102109271
:10113000AC021092AD021092AE021092AF0268EBB8
:101140007BE080E090E00E94C1078DE092E0909308
:10115000ED028093EC02E0911D02F0911E0282E00C
:101160008083E0911902F0911A021082E0911B0233
:10117000F0911C0280E1808310922502E09121020F
:10118000F091220286E08083E0911F02F09120021C
:10119000808180618083E0911F02F0912002808134
:1011A00088608083E0911F02F09120028081806836
:1011B0008083E0911F02F091200280818F7D8083E7
:1011C0000E9415056093AC027093AD028093AE024D
:1011D0009093AF0266E671E08091EC029091ED028F
:1011E0000E94E8076AE070E080E090E00E94C1079A
:1011F00091E09093C0028091AA01811144C01092A5
:101200009C0110929B018FEF80939F018093A0011E
:101210008093A1018093A2018093A3018093A401F4
:101220009093A5011092A7011092A60110929E0121
:1012300010929D0180910B0290910C02892B31F448
:1012400089E991E090930C0280930B02E091970161
:10125000F0919801309721F089E991E0958384839A
:1012600089E991E090939801809397011092A901E8
:101270001092A80188E191E090939A0180939901DE
:1012800081E08093AA01E0919901F0919A01048094
:10129000F581E02D89E991E0099580EC91E090934A
:1012A0009C0180939B0183E190E09093A701809340
:1012B000A601E0919901F0919A010284F385E02D55
:1012C00089E991E00995009729F19C0140E050E0FF
:1012D00060E472E48FE090E00E94F10E722F632FC1
:1012E0000091F5021091F6022091F7023091F80278
:1012F000872F962FDA0180179107A207B30710F402
:10130000D901C8018093F5029093F602A093F702E9
:10131000B093F802EEE9F0E02491EAE8F0E084917D
:101320008823C9F090E0880F991FFC01EE58FF4F09
:10133000A591B491FC01E859FF4F459154919FB795
:10134000F8943C91822F809583238C93FA018081BD
:10135000282B20839FBF64E670E080E090E00E942D
:10136000880280E090E00E941106182F81E090E052
:101370000E941106282F30E0C901810F911D909322
:10138000FE018093FD0182E090E00E9411068093AF
:10139000020181E08093030174EF472E552453949A
:1013A000612C712C1FEF212C332433940E941505DE
:1013B000672B682B692B41F40E941505623071057B
:1013C0008105910508F40BC10E9415056093070281
:1013D000709308028093090290930A02C09003025E
:1013E000D0900402E0900502F09006026C157D0595
:1013F0008E059F0540F4609303027093040280936E
:10140000050290930602C0900302D0900402E0907F
:101410000502F09006029B01AC012C193D094E0912
:101420005F0969017A013AEFC316D104E104F104BE
:1014300008F4D5C060930302709304028093050200
:10144000909306024092B8025092B9026092BA029A
:101450007092BB021092BC021092BD021092BE02AA
:101460001092BF028091B0029091B102A091B2029D
:10147000B091B3028093B4029093B502A093B602E8
:10148000B093B7020E9415056093B0027093B10249
:101490008093B2029093B3020E9415056093AC0250
:1014A0007093AD028093AE029093AF020E94150537
:1014B0006B017C0168E771E08091EC029091ED0294
:1014C0000E94E8072AE041E050E060E070E080918F
:1014D000EC029091ED020E94FD076FE771E08091B0
:1014E000EC029091ED020E94E8072AE0B701A60104
:1014F0008091EC029091ED020E94FD0761E871E09D
:101500008091EC029091ED020E94E8078091B00278
:101510009091B102A091B202B091B302B701A601BD
:10152000481B590B6A0B7B0B2AE08091EC029091CF
:10153000ED020E94FD0761E871E08091EC0290915C
:10154000ED020E94E8074091B0025091B102609113
:10155000B2027091B3028091B4029091B502A09151
:10156000B602B091B702481B590B6A0B7B0B2AE0FD
:101570008091EC029091ED020E94FD0763E871E01A
:101580008091EC029091ED020E94E8070E941505FF
:10159000AB01BC012AE08091EC029091ED020E9427
:1015A000FD07E090EC02F090ED0265E871E0C70104
:1015B0000E94E80765E771E0C7010E94E80762E062
:1015C00070E080E090E00E94C1070E9415056093E2
:1015D000B0027093B1028093B2029093B3020E9462
:1015E0001505C090FF01D0900002E0900102F0903C
:1015F0000202DC01CB018C199D09AE09BF098031C3
:101600009742A105B10508F4E0C00E94150560935A
:10161000FF01709300028093010290930202E09018
:10162000FD01F090FE0180E090E00E941106082F7D
:1016300081E090E00E941106282F30E0C901800F60
:10164000911DE816F90649F40091020182E090E04C
:101650000E947B0E081709F4B5C0FFEFEF16F104E6
:1016600011F00CF09FC26E2D00E080E090E06C83E2
:101670000E947B0E6C81681721F080E090E00E9450
:10168000830E81E090E00E947B0E081729F0602F06
:1016900081E090E00E94830E6091020182E090E080
:1016A0006C830E947B0E6C81681721F082E090E0D1
:1016B0000E94830E60ECC62E61E0D62E7601198260
:1016C0001A821B82B701CE0101960E946B0553E07E
:1016D000E50EF11C89EFE81681E0F80681F762E378
:1016E00070E080E090E00E94880256E2852E51E092
:1016F000952EE12CF12C00ECA02E01E0B02E1982E9
:101700001A821B82B501CE0101960E946B05E3E0AF
:10171000AE0EB11CF9EFAF16F1E0BF0681F7F40190
:10172000619171914F0119821A821B83CB01880F3D
:10173000991F680F791F60547E4FCE0101960E9459
:101740006B05E114F10409F431C2C7010197880F58
:10175000991FFC01EA5DFE4F60817181CB01880F0A
:10176000991F680F791F60547E4F19821A821B835C
:10177000CE0101960E946B050E94A40664E170E010
:1017800080E090E00E948802FFEFEF1AFF0A23E159
:10179000E216F10409F0AFCF19821A821B82B6015A
:1017A000CE0101960E946B0533E0C30ED11C49EFB8
:1017B000C41641E0D40681F762E370E080E090E077
:1017C0000E94880281E080930301E2EBF0E08491C3
:1017D000EEE9F0E09491EAE8F0E02491222309F4A4
:1017E0003AC0882339F1833091F038F48130A9F080
:1017F000823001F584B58F7D12C0873091F088303A
:10180000A1F08430B9F4809180008F7D03C0809175
:1018100080008F77809380000DC084B58F7784BD62
:1018200009C08091B0008F7703C08091B0008F7D98
:101830008093B000E22FF0E0EE0FFF1FE458FF4F5F
:10184000A591B4918C91982321E080E009F420E0E7
:10185000E22EF82E02C0E12CF12C8E2D81708093A7
:1018600001010E9415058090B5019090B601A090ED
:10187000B701B090B801DC01CB0188199909AA0918
:10188000BB09C397A105B10508F4E5C10E94150580
:101890006093B5017093B6018093B7019093B8013E
:1018A00080910001E114F104F9F4882389F0109289
:1018B000B4011092B301109200010E9415056093CB
:1018C000B5017093B6018093B7019093B80129C018
:1018D0008091B3019091B40101969093B4018093EB
:1018E000B301109200011DC081111BC08091B30192
:1018F0009091B4010A97ACF48091B201811111C0AA
:1019000081E0809300018091FD019091FE0140965D
:101910008033F1E09F073CF59093FE018093FD0139
:1019200026C08091B3019091B4010A9779F4109286
:10193000B4011092B30181E08093B2018091020161
:101940008F5F843000F5809302011FC0EF2809F4F7
:1019500082C11092B4011092B30181E08093000122
:101960001092B20178C11092FE011092FD010E9406
:1019700015056093FF01709300028093010290931C
:10198000020201E00DC0109202010E941505609351
:10199000FF0170930002809301029093020202E023
:1019A000E090FD01F090FE012FEFE216F10409F046
:1019B000ECF40E9415058090F9019090FA01A09036
:1019C000FB01B090FC01DC01CB0188199909AA093F
:1019D000BB0980319742A105B10508F0EAC00111A9
:1019E000E8C0809103018111E4C0D9C0E11481E015
:1019F000F806E9F40E941505C090F901D090FA01AB
:101A0000E090FB01F090FC01DC01CB018C199D09F9
:101A1000AE09BF0980319742A105B10508F0F2C0B7
:101A20000111F0C0809103018111ECC0B8C030E118
:101A3000E31631E0F30609F06AC00E941505C09074
:101A4000BC01D090BD01E090BE01F090BF01DC016F
:101A5000CB018C199D09AE09BF090A97A105B105F3
:101A600018F40E94A4069BC00E9415056093BC0157
:101A70007093BD018093BE019093BF0166E2C62EB4
:101A800061E0D62EA12CB12CE0910201F0E0EE0F26
:101A9000FF1FE45BFE4F4081E090BA01F090BB0174
:101AA000F601219131916F01C5016AE070E00E9459
:101AB000DD0ECB018E0D9F1DB1010E94DD0E8983CD
:101AC0001A834B83B901660F771F620F731F60542F
:101AD0007E4FCE0101960E946B05F0E8AF0EB11C5F
:101AE00020E8A21629E0B20679F63FEFE31AF30ADE
:101AF0004FEFE416F10409F02CF4F092BB01E092F0
:101B0000BA01AFCF1092BB011092BA01AACF50E236
:101B1000E51651E0F50609F042C00E941505C09097
:101B2000BC01D090BD01E090BE01F090BF01DC018E
:101B3000CB018C199D09AE09BF0988379105A10514
:101B4000B10508F48ECF0E9415056093BC01709317
:101B5000BD018093BE019093BF01D090B901D39491
:101B6000D092B90130ECE32E31E0F32EE091020186
:101B7000F0E0EE0FFF1FE45BFE4F8081D9821A83F5
:101B80008B83B701CE0101960E946B0583E0E80EBE
:101B9000F11CE9EFEE16E1E0FE0641F762CF0E948C
:101BA000C90004CC01E00E0D6FEF5FCD80E090E046
:101BB000CECD109203010E9415056093F901709338
:101BC000FA018093FB019093FC0190ECC92E91E007
:101BD000D92EE0910201F0E0EE0FFF1FE45BFE4F13
:101BE0008081E9821A838B83B601CE0101960E941F
:101BF0006B0543E0C40ED11C59EFC51651E0D50664
:101C000041F72FCF109203010E9415056093F9014F
:101C10007093FA018093FB019093FC0180ECE82E15
:101C200081E0F82EE0910201F0E0EE0FFF1FE45B8F
:101C3000FE4F808119821A828B83B701CE010196F3
:101C40000E946B05F3E0EF0EF11C29EFE21621E094
:101C5000F20641F706CF00E0A3CEEDE0F2E01382FA
:101C6000128288EE93E0A0E0B0E084839583A6839F
:101C7000B78388E591E09183808385EC90E0958738
:101C8000848784EC90E09787868780EC90E0918B46
:101C9000808B81EC90E0938B828B82EC90E0958B33
:101CA000848B86EC90E0978B868B118E128E138E30
:101CB000148EEAEAF2E016821782108611861286E6
:101CC00013861486158616861786108A118A128A3C
:101CD000138A148A158AE2EFF2E08FEF8083128272
:101CE0001182148613868FEF9FEFDC018783908724
:101CF000A187B2870895F999FECF92BD81BDF89A68
:101D0000992780B50895262FF999FECF1FBA92BD65
:101D100081BD20BD0FB6F894FA9AF99A0FBE0196CC
:101D20000895DB018F939F930E94C30EBF91AF91E3
:101D3000A29F800D911DA39F900DB29F900D112425
:101D40000895A1E21A2EAA1BBB1BFD010DC0AA1FFC
:101D5000BB1FEE1FFF1FA217B307E407F50720F014
:101D6000A21BB30BE40BF50B661F771F881F991F8F
:101D70001A9469F760957095809590959B01AC01D8
:101D8000BD01CF0108950E94CE0EA59F900DB49F76
:101D9000900DA49F800D911D11240895A29FB00164
:101DA000B39FC001A39F700D811D1124911DB29F8F
:101DB000700D811D1124911D089597FB072E16F4B7
:101DC000009407D077FD09D00E94170F07FC05D0BB
:101DD0003EF4909581959F4F0895709561957F4F42
:101DE0000895052E97FB1EF400940E94080F57FDDE
:101DF00007D00E94A10E07FC03D04EF40C94080FEC
:101E000050954095309521953F4F4F4F5F4F089526
:101E100090958095709561957F4F8F4F9F4F089556
:101E20000E94CE0EB7FF0895821B930B0895AA1B44
:101E3000BB1B51E107C0AA1FBB1FA617B70710F0B5
:101E4000A61BB70B881F991F5A95A9F780959095E7
:101E5000BC01CD010895EE0FFF1F0590F491E02D18
:101E6000099481E090E0F8940C94360FF894FFCF39
:101E70000101030100000000D701D701D701B30120
:101E8000AF01AC0100000000690125012301B3018D
:101E9000AF012001C2020000120001001100020087
:101EA000100003000F0004000E0005000D000600E6
:101EB0000C0007000B0008000A0009000000550094
:101EC000AA00FF0000000000FA0179068C00410220
:101ED000BD009B00AF00564D4450565F317C315FD2
:101EE000564D4450560D0A00564D4450455F003A39
:0C1EF000323A007C005F564D4450450023
:00000001FF
