:100000000C9462000C948A000C948A000C948A0070
:100010000C948A000C948A000C948A000C948A0038
:100020000C948A000C948A000C948A000C948A0028
:100030000C948A000C948A000C948A000C948A0018
:100040000C9400050C948A000C949D040C94770485
:100050000C948A000C948A000C948A000C948A00F8
:100060000C948A000C948A000000000025002800EF
:100070002B0000000000240027002A0000000000E0
:1000800023002600290004040404040404040202DA
:100090000202020203030303030301020408102007
:1000A0004080010204081020010204081020000012
:1000B0000008000201000003040700000000000027
:1000C0000000C90A11241FBECFEFD8E0DEBFCDBFAC
:1000D00022E0A0E7B1E001C01D92AF3DB207E1F719
:1000E00011E0A0E0B1E0ECE7F7E102C005900D926D
:1000F000A037B107D9F710E0C2E6D0E004C02197DD
:10010000FE010E94B10BC136D107C9F70E945E07FC
:100110000C94BC0B0C94000080E991E00895509A77
:10012000089580E090E00895FC0185859685089506
:10013000CF93DF9300D000D000D0CDB7DEB7AB01B6
:100140001C821D821E82DC01ED91FC910190F081E8
:10015000E02D19821A821B829E012F5F3F4FBE0144
:100160006C5F7F4F099526960FB6F894DEBF0FBEE1
:10017000CDBFDF91CF9108954F925F926F927F92A2
:100180008F92AF92BF92CF92EF92FF920F931F93F5
:10019000CF93DF933C01EB010E94CF04F30127854D
:1001A0003089621B730B6A307105B0F3F894E881F3
:1001B000F9815BB151608BB18E7F8BB96A859F816C
:1001C000262F291B922F2F83BF844A805B807D8539
:1001D000FC84EE847F5FF394E3943E814885A98498
:1001E000CB841181D20120E0C32F022F322F318125
:1001F000112788943111390F08F43FEF91958894B5
:1002000070FD130F1795889471FD130F179588943F
:1002100072FD130F1795889473FD130F179588942B
:1002200074FD130F1795889475FD130F1795889417
:1002300076FD130F1795889477FD130F1795889403
:10024000232F7111212F960F122F002C5BB900C0A4
:1002500017FF8BB930812227889400C000C0002C82
:100260008BB931113C0F00C0002C5BB900C016FFE8
:100270008BB908F43FEFC195889400C000C0002CF2
:100280008BB9F0FC230F00C0002C5BB900C015FF38
:100290008BB927958894F1FC230F00C000C0002C77
:1002A0008BB92795889400C0002C5BB900C014FF5F
:1002B0008BB9F2FC230F2795889400C000C0002C56
:1002C0008BB9F3FC230F00C0002C5BB900C013FFF7
:1002D0008BB927958894F4FC230F00C000C0002C34
:1002E0008BB92795889400C0002C5BB900C012FF21
:1002F0008BB9F5FC230F2795889400C000C0002C13
:100300008BB9F6FC230F00C0002C5BB900C011FFB5
:100310008BB927958894F7FC230F00C000C0002CF0
:100320008BB92795889400C0002C5BB900C010FFE2
:100330008BB9132FF110122FCA0D00C000C0002C72
:100340008BB900C000C0002C5BB900C017FF8BB98F
:1003500032812227889400C000C0002C8BB9311153
:10036000340F00C0002C5BB900C016FF8BB908F435
:100370003FEFEB0DF11D00C000C0002C8BB9E0FC7D
:10038000230F00C0002C5BB900C015FF8BB9279567
:100390008894E1FC230F00C000C0002C8BB9279586
:1003A000889400C0002C5BB900C014FF8BB9E2FC3C
:1003B000230F2795889400C000C0002C8BB9E3FC64
:1003C000230F00C0002C5BB900C013FF8BB9279529
:1003D0008894E4FC230F00C000C0002C8BB9279543
:1003E000889400C0002C5BB900C012FF8BB9E5FCFB
:1003F000230F2795889400C000C0002C8BB9E6FC21
:10040000230F00C0002C5BB900C011FF8BB92795EA
:100410008894E7FC230F00C000C0002C8BB92795FF
:10042000889400C0002C5BB900C010FF8BB9132F5B
:10043000E110122F419500C000C0002C8BB94C0D6B
:1004400000C000C05BB900C017FF8BB93181222703
:10045000889400C000C0002C8BB93111390F00C046
:10046000002C5BB900C016FF8BB908F43FEF9195E3
:10047000889400C000C0002C8BB970FD230F00C011
:10048000002C5BB900C015FF8BB92795889471FDCE
:10049000230F00C000C0002C8BB92795889400C0A2
:1004A000002C5BB900C014FF8BB972FD230F279598
:1004B000889400C000C0002C8BB973FD230F00C0CE
:1004C000002C5BB900C013FF8BB92795889474FD8D
:1004D000230F00C000C0002C8BB92795889400C062
:1004E000002C5BB900C012FF8BB975FD230F279557
:1004F000889400C000C0002C8BB976FD230F00C08B
:10050000002C5BB900C011FF8BB92795889477FD4B
:10051000230F00C000C0002C8BB92795889400C021
:10052000002C5BB900C010FF8BB9132F7111122F73
:10053000960F00C000C0002C8BB9119709F086CE31
:1005400020EE31E0D2010E94960BDC01CB01F4E0F9
:10055000B695A79597958795FA95D1F720E030E065
:10056000A9016AE9469E040C411D569E400D511D8D
:100570001124450D511D840F951FA11DB11D893EEC
:1005800043E09407A105B10508F434C0885E9340A8
:10059000A109B10942E0B695A795979587954A9527
:1005A000D1F747E0849F080E211D949F200D311D37
:1005B0001124290F311D6091700170E0860F971F83
:1005C000820F931F409171015091720160917301EC
:1005D00070917401292F3327420F531F611D711D24
:1005E0004093710150937201609373017093740191
:1005F0008093700178940E94CF04F301708B678719
:10060000DF91CF911F910F91FF90EF90CF90BF900E
:10061000AF908F907F906F905F904F9008950F9361
:100620001F93CF93DF93CDB7DEB762970FB6F894E1
:10063000DEBF0FBECDBF8C01F901DC011C968C9191
:100640007A8369835C834B835E834D8390819D872E
:1006500091819E8792819F87813029F4CE010196F6
:100660000E944A0506C01C861B861A8619861886B3
:100670001F8283E0888B1A8A198AD801ED91FC9138
:100680000484F585E02DBE016F5F7F4FC801099599
:1006900062960FB6F894DEBF0FBECDBFDF91CF914B
:1006A0001F910F9108950F931F93CF93DF93CDB7B1
:1006B000DEB762970FB6F894DEBF0FBECDBF8C01D8
:1006C000F901DC011C968C917A8369835C834B83EE
:1006D0005E834D8390819D8791819E8792819F87C4
:1006E000813029F4CE0101960E944A0506C01C867D
:1006F0001B861A86198618861F82188A1A8A198AF2
:10070000D801ED91FC910484F585E02DBE016F5F69
:100710007F4FC801099562960FB6F894DEBF0FBEF1
:10072000CDBFDF91CF911F910F910895089580E083
:1007300090E00895FC01538D448D252F30E0842FE7
:1007400090E0821B930B541710F0CF9608950197F9
:100750000895FC01918D828D981761F0828DDF01E3
:10076000A80FB11D5D968C91928D9F5F9F73928FA4
:1007700090E008958FEF9FEF0895FC01918D828D99
:10078000981731F0828DE80FF11D858D90E0089566
:100790008FEF9FEF0895FC01918D228D892F90E0BE
:1007A000805C9F4F821B91098F739927089583EE78
:1007B00091E00E94CB0321E0892B09F420E0822FF5
:1007C0000895FC01848DDF01A80FB11DA35ABF4F0E
:1007D0002C91848D90E001968F739927848FA68940
:1007E000B7892C93A089B1898C9180648C93938D67
:1007F000848D981306C00288F389E02D80818F7D57
:1008000080830895EF92FF920F931F93CF93DF930E
:10081000EC0181E0888F9B8D8C8D981305C0E88951
:10082000F989808185FD24C0F62E0B8D10E00F5FC5
:100830001F4F0F731127E02E8C8DE8120CC00FB6DE
:1008400007FCFACFE889F989808185FFF5CFCE01D1
:100850000E94E103F1CF8B8DFE01E80FF11DE35AF9
:10086000FF4FF0820B8FEA89FB898081806207C08D
:10087000EE89FF896083E889F989808180648083BB
:1008800081E090E0DF91CF911F910F91FF90EF9069
:100890000895CF93DF93EC01888D8823C9F0EA890E
:1008A000FB89808185FD05C0A889B9898C9186FD69
:1008B0000FC00FB607FCF5CF808185FFF2CFA88966
:1008C000B9898C9185FFEDCFCE010E94E103E7CF7E
:1008D000DF91CF91089580E090E0892B29F00E946C
:1008E000D70381110C94000008950E94B70B1F924A
:1008F0000F920FB60F9211242F933F934F935F9354
:100900006F937F938F939F93AF93BF93EF93FF93D7
:1009100083EE91E00E94E103FF91EF91BF91AF91CF
:100920009F918F917F916F915F914F913F912F9107
:100930000F900FBE0F901F9018951F920F920FB639
:100940000F9211242F938F939F93EF93FF93E09136
:10095000F301F091F4018081E091F901F091FA0145
:1009600082FD12C090818091FC018F5F8F73209176
:10097000FD01821751F0E091FC01F0E0ED51FE4FD6
:10098000958F8093FC0101C08081FF91EF919F9131
:100990008F912F910F900FBE0F901F9018953FB71A
:1009A000F8948091770190917801A0917901B091AC
:1009B0007A0126B5A89B05C02F3F19F00196A11D0D
:1009C000B11D3FBFBA2FA92F982F8827820F911DE5
:1009D000A11DB11DBC01CD0142E0660F771F881F2C
:1009E000991F4A95D1F708952FB7F8946091710136
:1009F0007091720180917301909174012FBF0895DD
:100A00001F920F920FB60F9211242F933F938F9343
:100A10009F93AF93BF938091710190917201A091C8
:100A20007301B09174013091760123E0230F2D37CB
:100A300020F40196A11DB11D05C026E8230F0296E2
:100A4000A11DB11D209376018093710190937201D5
:100A5000A0937301B0937401809177019091780114
:100A6000A0917901B0917A010196A11DB11D8093E9
:100A7000770190937801A0937901B0937A01BF91A7
:100A8000AF919F918F913F912F910F900FBE0F903B
:100A90001F901895EF92FF920F931F93CF93DF93C0
:100AA000EC01909175019F5F292F277020937501AC
:100AB00090FF02C090E801C090E021FD9064247096
:100AC00009F0906220E1290FFE013C967E018FE043
:100AD000E80EF11C00E011E06191662331F070E056
:100AE000C8010E94630B6F5F01C060E0DF011497D3
:100AF0006C93322F369F030E30E0311D1124CF014D
:100B00000797311103C0EC01188203C03150EC018A
:100B10003883662311F061506C93EE15FF05E1F602
:100B2000DF91CF911F910F91FF90EF900895CF9299
:100B3000DF92EF92FF920F931F93CF93DF936C019D
:100B40007A018B01C0E0D0E0CE15DF0589F0D80135
:100B50006D918D01D601ED91FC910190F081E02D18
:100B6000C6010995892B11F47E0102C02196ECCFB4
:100B7000C701DF91CF911F910F91FF90EF90DF9010
:100B8000CF9008953F924F925F926F927F928F9293
:100B90009F92AF92BF92CF92DF92EF92FF920F930C
:100BA0001F93CF93DF9300D01F92CDB7DEB7F82EFF
:100BB0008091CB029091CC02A091CD02B091CE0257
:100BC000892B8A2B8B2BE9F00E94CF040091DB024A
:100BD0001091DC022091DD023091DE02DC01CB01BC
:100BE000801B910BA20BB30B0091CB021091CC0296
:100BF0002091CD023091CE0280179107A207B30752
:100C0000B8F20E94CF046093DB027093DC02809301
:100C1000DD029093DE02E091D302F091D40230978E
:100C200059F04091CF025091D0026091D102709161
:100C3000D2028F2D0995F82E0091E1011091E20169
:100C40004F2C512C612C712C0115110509F461C038
:100C5000D8011C96EC901C978091C9029091CA0211
:100C60008436910510F41C961C92D801ED91FC91EC
:100C7000A280B38019821A821B82F11014C0F8017D
:100C800045855685628173819E012F5F3F4FC80164
:100C9000F5010995D8011C96EC921C9714960D91BC
:100CA0001C911597D1CFF8013996CE0101966C01B0
:100CB00048019CE0890E911CDF0113973C90219123
:100CC000332001F12223F1F0822F90E0A0E0B0E088
:100CD0009C01AD012F5F3F4F4F4F5F4FC301B201EA
:100CE0000E94170B9B01AC01832D90E0A0E0B0E0C7
:100CF000BC01CD016F5F7F4F8F4F9F4F0E94170B3D
:100D0000D6018C93BFEFCB1ADB0AE815F905A1F6E3
:100D1000B6CF8091D9029091DA028C010F5F1F4FFC
:100D20001093DA020093D90249979CF10E94F404CF
:100D30004B015C0188EE93E0089FB001099F700DA4
:100D4000189F700D1124072E000C880B990BC09072
:100D5000D502D090D602E090D702F090D802A5013B
:100D600094012C193D094E095F090E94270B30930D
:100D7000CA022093C9021092DA021092D9020E948C
:100D8000F4046093D5027093D6028093D7029093B7
:100D9000D8020F900F900F90DF91CF911F910F917C
:100DA000FF90EF90DF90CF90BF90AF909F908F908B
:100DB0007F906F905F904F903F900895FB01DC0112
:100DC0004C9112966C91242F2F71220F220F822F9B
:100DD000880F35E5282F239F020E20E0211D1124C6
:100DE000542F5074942F907247FD21C051110BC0A5
:100DF000911104C0822F8095422F11C045E5420F0A
:100E000030E02BEA34C091110DC0382F4AEA349FEC
:100E1000030E30E0311D11248BEA831B420F282F73
:100E200030E025C080E0422F4095322F0FC0511195
:100E300012C091110DC0282F3AEA239F020E20E024
:100E4000211D11244BEA421B35E5320F20E00FC073
:100E5000322F30950BC0911104C085E5820F3BEA1B
:100E600003C08AEA820F90E0321B282F40E06F3FD8
:100E700009F420C050E0662321F0669F512D09F04F
:100E80005F5F5523A1F0222321F0259F020E20E071
:100E9000211D442321F0459F040E40E0411D3323D2
:100EA00021F0359F030E30E0311D112403C030E0E6
:100EB00040E020E02083418332830895CF93DF9385
:100EC00000D01F92CDB7DEB7789484B5826084BD20
:100ED00084B5816084BD85B5826085BD85B581603E
:100EE00085BD80916E00816080936E0010928100BC
:100EF0008091810082608093810080918100816077
:100F00008093810080918000816080938000809137
:100F1000B10084608093B1008091B00081608093C3
:100F2000B00080917A00846080937A0080917A008A
:100F3000826080937A0080917A00816080937A0049
:100F400080917A00806880937A001092C10010929C
:100F5000C4021092C5021092C6021092C7021092EB
:100F600082021092830210928402109285020E94E3
:100F7000F4046B017C014B015C0128EB820E2BE039
:100F8000921EA11CB11C0E94F4046C157D058E05F7
:100F90009F0528F086169706A806B906A0F783EEE7
:100FA00091E09093C3028093C202E091F301F0912B
:100FB000F40182E08083E091EF01F091F001108272
:100FC000E091F101F091F20180E180831092FB0148
:100FD000E091F701F091F80186E08083E091F5015E
:100FE000F091F601808180618083E091F501F091BC
:100FF000F601808188608083E091F501F091F6012F
:10100000808180688083E091F501F091F601808114
:101010008F7D80830E94F404609382027093830228
:1010200080938402909385028091C2029091C302C2
:10103000DC01ED91FC910280F381E02D41E150E073
:101040006EE571E009950E94F4046B017C014B018F
:101050005C01BAE08B0E911CA11CB11C0E94F4042F
:101060006C157D058E059F0528F086169706A80647
:10107000B906A0F791E09093960280918E018111BC
:1010800044C01092800110927F018FEF8093830102
:1010900080938401809385018093860180938701EA
:1010A000809388019093890110928B0110928A019C
:1010B00010928201109281018091E1019091E201F0
:1010C000892B31F48DE791E09093E2018093E10167
:1010D000E0917B01F0917C01309721F08DE791E068
:1010E000958384838DE791E090937C0180937B01CD
:1010F00010928D0110928C0188E191E090937E0115
:1011000080937D0181E080938E01E0917D01F091DB
:101110007E010480F581E02D8DE791E0099586EA56
:1011200091E09093800180937F0183E190E0909320
:101130008B0180938A01E0917D01F0917E01028410
:10114000F385E02D8DE791E00995009729F19C0149
:1011500040E050E060E472E48FE090E00E94770BA2
:10116000722F632F0091CB021091CC022091CD02FF
:101170003091CE02872F962FDA0180179107A207B0
:10118000B30710F4D901C8018093CB029093CC022D
:10119000A093CD02B093CE02FEE94F2EF0E05F2E79
:1011A000F2012491AAE8CA2EA0E0DA2EF601849179
:1011B0008823C9F090E0880F991FFC01EE58FF4F7B
:1011C000A591B491FC01E859FF4F459154919FB707
:1011D000F8943C91822F809583238C93DA018C9133
:1011E000282B2C939FBFEBEAF0E02491E7E9F0E095
:1011F00084918823C9F090E0880F991FFC01EE5874
:10120000FF4FA591B491FC01E859FF4F45915491CE
:101210009FB7F8948C91E22FE0958E238C93DA019E
:101220008C91E823EC939FBF5AE0A52EB12C812C22
:101230009924939433243A9483E480937C0080919E
:101240007A00806480937A0080917A00B82FB0741D
:10125000FB2E86FDF9CF809178002091790090E0F7
:10126000922B8F3F9105CCF006EA11E08091DF01CF
:1012700089833A821B82B801CE0101960E94DE0664
:101280000D5F1F4F81E00F3D180781F78091C80265
:101290000E94C2050E946B04CFCFE2EBF0E0849184
:1012A000F2012491F6013491332309F43CC08823E0
:1012B00049F1833091F038F48130A9F0823011F592
:1012C00084B58F7D12C0873091F08830B1F08430C2
:1012D000C9F4809180008F7D03C0809180008F775A
:1012E000809380000FC084B58F7784BD0BC0809140
:1012F000B0008F778093B00005C09091B0009F7DC3
:101300009093B000E32FF0E0EE0FFF1FE458FF4F83
:10131000A591B4918C91822321E090E009F420E022
:10132000022F192F02C000E010E0802F81708093FF
:1013300001010E94F404209198013091990140919B
:101340009A0150919B01DC01CB01821B930BA40BF2
:10135000B50BC397A105B10508F46FC00E94F40452
:10136000609398017093990180939A0190939B01E7
:101370008091000101151105F9F4882389F010927C
:10138000970110929601109200010E94F40460935C
:1013900098017093990180939A0190939B0125C0C5
:1013A0008091960190919701019690939701809377
:1013B00096011092000119C0811117C08091960109
:1013C0009091970144978CF481E080930001809183
:1013D000DF019091E00140968032E1E09E07ACF49D
:1013E0009093E0018093DF0114C080919601909169
:1013F0009701449789F0012B01F110929701109207
:10140000960181E08093000118C01092E0011092D3
:10141000DF01FF24F39411C0809102019091030138
:101420008B5A9F4F8F3F910509F00CF48CC010929E
:1014300003011092020132E0F32E0091DF011091BE
:10144000E0010F3F110509F0CCF40E94F404209153
:10145000A2013091A3014091A4015091A501DC01AA
:10146000CB01821B930BA40BB50B88389341A105CC
:10147000B10508F06DC0F1106BC00CCF011591E003
:10148000190789F406EA11E019823A823B82B80111
:10149000CE0101960E94DE060D5F1F4FA1E00F3DB9
:1014A0001A0791F7F3CE0031114009F0F3CE0E94F4
:1014B000F4040E94F40460939E0170939F01809352
:1014C000A0019093A10126E2622E21E0722EE12C70
:1014D000F12C4091020100919C0110919D01F301BA
:1014E000219131913F01C701B5010E94630BCB01EE
:1014F000800F911FB4010E94630B89833A824B8352
:10150000B901660F771F620F731F6A557E4FCE01B8
:1015100001960E94DE06F0E8EF0EF11C20E8E216CC
:1015200029E0F206B1F60F5F1F4F0F3F110509F0DA
:101530002CF410939D0100939C01ACCE10929D0160
:1015400010929C01A7CE909303018093020173CF68
:101550000E94F4046093A2017093A3018093A401FC
:101560009093A50186EAE82E81E0F82E8091020191
:1015700009833A828B83B701CE0101960E94DE0671
:1015800023E0E20EF11C8FEDE81681E0F80671F71A
:101590007DCEE3EEF1E01382128288EE93E0A0E0CC
:1015A000B0E084839583A683B78380E591E091833F
:1015B000808385EC90E09587848784EC90E0978722
:1015C000868780EC90E0918B808B81EC90E0938B10
:1015D000828B82EC90E0958B848B86EC90E0978BED
:1015E000868B118E128E138E148EE0E8F2E0168236
:1015F0001782108611861286138614861586168623
:101600001786108A118A128A138A148A158AE8ECBE
:10161000F2E08FEF808312821182148613868FEF9F
:101620009FEFDC0187839087A187B2870895DB0154
:101630008F939F930E94490BBF91AF91A29F800D02
:10164000911DA39F900DB29F900D11240895A1E2CA
:101650001A2EAA1BBB1BFD010DC0AA1FBB1FEE1F2C
:10166000FF1FA217B307E407F50720F0A21BB30B77
:10167000E40BF50B661F771F881F991F1A9469F7F3
:1016800060957095809590959B01AC01BD01CF014F
:1016900008950E94540BA59F900DB49F900DA49F98
:1016A000800D911D11240895A29FB001B39FC00128
:1016B000A39F700D811D1124911DB29F700D811D7E
:1016C0001124911D089597FB072E16F4009407D05E
:1016D00077FD09D00E949D0B07FC05D03EF4909544
:1016E00081959F4F0895709561957F4F0895052EC0
:1016F00097FB1EF400940E948E0B57FD07D00E94AA
:10170000270B07FC03D04EF40C948E0B509540959C
:10171000309521953F4F4F4F5F4F0895909580959D
:10172000709561957F4F8F4F9F4F08950E94540B86
:10173000B7FF0895821B930B0895AA1BBB1B51E1B1
:1017400007C0AA1FBB1FA617B70710F0A61BB70B31
:10175000881F991F5A95A9F780959095BC01CD01D6
:101760000895EE0FFF1F0590F491E02D099481E09C
:0C17700090E0F8940C94BC0BF894FFCFB0
:10177C000101FF0000000000750475047504980059
:10178C00940091000000000053030F038F00980099
:10179C0094008C00BC00000012000100110002003B
:1017AC00100003000F0004000E0005000D000600E1
:1017BC000C0007000B0008000A00090000000000E4
:1017CC00020497059A034904CB03A903BD03564DA4
:1017DC004450565F317C315F564D4450560D0A00D3
:00000001FF
